{
  "_format": "hh3-artifact-1",
  "contractName": "Settlement",
  "sourceName": "contracts/Settlement.sol",
  "abi": [
    {
      "inputs": [
        {
          "internalType": "address",
          "name": "_shareToken",
          "type": "address"
        },
        {
          "internalType": "address",
          "name": "_inrToken",
          "type": "address"
        }
      ],
      "stateMutability": "nonpayable",
      "type": "constructor"
    },
    {
      "inputs": [],
      "name": "inrToken",
      "outputs": [
        {
          "internalType": "contract INRToken",
          "name": "",
          "type": "address"
        }
      ],
      "stateMutability": "view",
      "type": "function"
    },
    {
      "inputs": [
        {
          "internalType": "address",
          "name": "buyer",
          "type": "address"
        },
        {
          "internalType": "address",
          "name": "seller",
          "type": "address"
        },
        {
          "internalType": "uint256",
          "name": "shareAmount",
          "type": "uint256"
        },
        {
          "internalType": "uint256",
          "name": "price",
          "type": "uint256"
        }
      ],
      "name": "settleTrade",
      "outputs": [],
      "stateMutability": "nonpayable",
      "type": "function"
    },
    {
      "inputs": [],
      "name": "shareToken",
      "outputs": [
        {
          "internalType": "contract ShareToken",
          "name": "",
          "type": "address"
        }
      ],
      "stateMutability": "view",
      "type": "function"
    }
  ],
  "bytecode": "0x608060405234801561000f575f5ffd5b506040516107ec3803806107ec83398181016040528101906100319190610115565b815f5f6101000a81548173ffffffffffffffffffffffffffffffffffffffff021916908373ffffffffffffffffffffffffffffffffffffffff1602179055508060015f6101000a81548173ffffffffffffffffffffffffffffffffffffffff021916908373ffffffffffffffffffffffffffffffffffffffff1602179055505050610153565b5f5ffd5b5f73ffffffffffffffffffffffffffffffffffffffff82169050919050565b5f6100e4826100bb565b9050919050565b6100f4816100da565b81146100fe575f5ffd5b50565b5f8151905061010f816100eb565b92915050565b5f5f6040838503121561012b5761012a6100b7565b5b5f61013885828601610101565b925050602061014985828601610101565b9150509250929050565b61068c806101605f395ff3fe608060405234801561000f575f5ffd5b506004361061003f575f3560e01c80636c9fa59e14610043578063b66f92a014610061578063e85017d61461007d575b5f5ffd5b61004b61009b565b604051610058919061032d565b60405180910390f35b61007b600480360381019061007691906103b8565b6100bf565b005b61008561028e565b604051610092919061043c565b60405180910390f35b5f5f9054906101000a900473ffffffffffffffffffffffffffffffffffffffff1681565b5f81836100cc9190610482565b905060015f9054906101000a900473ffffffffffffffffffffffffffffffffffffffff1673ffffffffffffffffffffffffffffffffffffffff166323b872dd8686846040518463ffffffff1660e01b815260040161012c939291906104e1565b6020604051808303815f875af1158015610148573d5f5f3e3d5ffd5b505050506040513d601f19601f8201168201806040525081019061016c919061054b565b6101ab576040517f08c379a00000000000000000000000000000000000000000000000000000000081526004016101a2906105d0565b60405180910390fd5b5f5f9054906101000a900473ffffffffffffffffffffffffffffffffffffffff1673ffffffffffffffffffffffffffffffffffffffff166323b872dd8587866040518463ffffffff1660e01b8152600401610208939291906104e1565b6020604051808303815f875af1158015610224573d5f5f3e3d5ffd5b505050506040513d601f19601f82011682018060405250810190610248919061054b565b610287576040517f08c379a000000000000000000000000000000000000000000000000000000000815260040161027e90610638565b60405180910390fd5b5050505050565b60015f9054906101000a900473ffffffffffffffffffffffffffffffffffffffff1681565b5f73ffffffffffffffffffffffffffffffffffffffff82169050919050565b5f819050919050565b5f6102f56102f06102eb846102b3565b6102d2565b6102b3565b9050919050565b5f610306826102db565b9050919050565b5f610317826102fc565b9050919050565b6103278161030d565b82525050565b5f6020820190506103405f83018461031e565b92915050565b5f5ffd5b5f610354826102b3565b9050919050565b6103648161034a565b811461036e575f5ffd5b50565b5f8135905061037f8161035b565b92915050565b5f819050919050565b61039781610385565b81146103a1575f5ffd5b50565b5f813590506103b28161038e565b92915050565b5f5f5f5f608085870312156103d0576103cf610346565b5b5f6103dd87828801610371565b94505060206103ee87828801610371565b93505060406103ff878288016103a4565b9250506060610410878288016103a4565b91505092959194509250565b5f610426826102fc565b9050919050565b6104368161041c565b82525050565b5f60208201905061044f5f83018461042d565b92915050565b7f4e487b71000000000000000000000000000000000000000000000000000000005f52601160045260245ffd5b5f61048c82610385565b915061049783610385565b92508282026104a581610385565b915082820484148315176104bc576104bb610455565b5b5092915050565b6104cc8161034a565b82525050565b6104db81610385565b82525050565b5f6060820190506104f45f8301866104c3565b61050160208301856104c3565b61050e60408301846104d2565b949350505050565b5f8115159050919050565b61052a81610516565b8114610534575f5ffd5b50565b5f8151905061054581610521565b92915050565b5f602082840312156105605761055f610346565b5b5f61056d84828501610537565b91505092915050565b5f82825260208201905092915050565b7f5061796d656e74206661696c65640000000000000000000000000000000000005f82015250565b5f6105ba600e83610576565b91506105c582610586565b602082019050919050565b5f6020820190508181035f8301526105e7816105ae565b9050919050565b7f5368617265207472616e73666572206661696c656400000000000000000000005f82015250565b5f610622601583610576565b915061062d826105ee565b602082019050919050565b5f6020820190508181035f83015261064f81610616565b905091905056fea26469706673582212205861f2d302bf103e0bc5cc5ca3196700f247accc3f151dea7b6165a83839ae9b64736f6c634300081c0033",
  "linkReferences": {},
  "deployedLinkReferences": {},
  "immutableReferences": {},
  "inputSourceName": "project/contracts/Settlement.sol",
  "buildInfoId": "solc-0_8_28-18625fa5bb9302d5458a03da304f424fd34adb1b"
}